{"abi":[{"type":"function","name":"balance1","inputs":[{"name":"","type":"address","internalType":"address"}],"outputs":[{"name":"","type":"uint256","internalType":"uint256"}],"stateMutability":"view"},{"type":"function","name":"balance2","inputs":[{"name":"","type":"address","internalType":"address"}],"outputs":[{"name":"","type":"uint256","internalType":"uint256"}],"stateMutability":"view"},{"type":"function","name":"setBal1","inputs":[{"name":"user","type":"address","internalType":"address"},{"name":"amount","type":"uint256","internalType":"uint256"}],"outputs":[],"stateMutability":"nonpayable"},{"type":"function","name":"setBal2","inputs":[{"name":"user","type":"address","internalType":"address"},{"name":"amount","type":"uint256","internalType":"uint256"}],"outputs":[],"stateMutability":"nonpayable"},{"type":"function","name":"swap","inputs":[{"name":"user","type":"address","internalType":"address"},{"name":"amountIn","type":"uint256","internalType":"uint256"},{"name":"bal1_in","type":"bool","internalType":"bool"}],"outputs":[],"stateMutability":"nonpayable"},{"type":"function","name":"swapWithFee","inputs":[{"name":"user","type":"address","internalType":"address"},{"name":"amountIn","type":"uint256","internalType":"uint256"},{"name":"bal1_in","type":"bool","internalType":"bool"}],"outputs":[],"stateMutability":"nonpayable"}],"bytecode":{"object":"0x608060405234801561001057600080fd5b50610559806100206000396000f3fe608060405234801561001057600080fd5b50600436106100625760003560e01c80630c1fc829146100675780632106208c146100995780634eab1d8c146100ae578063919722bb146100d8578063af62db3f146100eb578063da60d1001461010b575b600080fd5b6100876100753660046103e0565b60016020526000908152604090205481565b60405190815260200160405180910390f35b6100ac6100a7366004610402565b610135565b005b6100ac6100bc366004610447565b6001600160a01b03909116600090815260016020526040902055565b6100ac6100e6366004610402565b6102a4565b6100876100f93660046103e0565b60006020819052908152604090205481565b6100ac610119366004610447565b6001600160a01b03909116600090815260208190526040902055565b80156101f4576001600160a01b03831660009081526020819052604090205482111561017c5760405162461bcd60e51b815260040161017390610471565b60405180910390fd5b6001600160a01b038316600090815260208190526040812080548492906101a49084906104be565b90915550606490506101b783605f6104d7565b6101c191906104ee565b6001600160a01b038416600090815260016020526040812080549091906101e9908490610510565b9091555061029f9050565b6001600160a01b03831660009081526001602052604090205482111561022c5760405162461bcd60e51b815260040161017390610471565b6001600160a01b038316600090815260016020526040812080548492906102549084906104be565b909155506064905061026783605f6104d7565b61027191906104ee565b6001600160a01b03841660009081526020819052604081208054909190610299908490610510565b90915550505b505050565b8015610337576001600160a01b0383166000908152602081905260409020548211156102e25760405162461bcd60e51b815260040161017390610471565b6001600160a01b0383166000908152602081905260408120805484929061030a9084906104be565b90915550506001600160a01b038316600090815260016020526040812080548492906101e9908490610510565b6001600160a01b03831660009081526001602052604090205482111561036f5760405162461bcd60e51b815260040161017390610471565b6001600160a01b038316600090815260016020526040812080548492906103979084906104be565b90915550506001600160a01b03831660009081526020819052604081208054849290610299908490610510565b80356001600160a01b03811681146103db57600080fd5b919050565b6000602082840312156103f257600080fd5b6103fb826103c4565b9392505050565b60008060006060848603121561041757600080fd5b610420846103c4565b9250602084013591506040840135801515811461043c57600080fd5b809150509250925092565b6000806040838503121561045a57600080fd5b610463836103c4565b946020939093013593505050565b6020808252601a908201527f537761703a20696e73756666696369656e742062616c616e6365000000000000604082015260600190565b634e487b7160e01b600052601160045260246000fd5b818103818111156104d1576104d16104a8565b92915050565b80820281158282048414176104d1576104d16104a8565b60008261050b57634e487b7160e01b600052601260045260246000fd5b500490565b808201808211156104d1576104d16104a856fea264697066735822122018ce50e302352a84c65346fec88c0829b423b6addbc82dd35a292d6ec776f1fe64736f6c63430008140033","linkReferences":{}},"methodIdentifiers":{"balance1(address)":"af62db3f","balance2(address)":"0c1fc829","setBal1(address,uint256)":"da60d100","setBal2(address,uint256)":"4eab1d8c","swap(address,uint256,bool)":"919722bb","swapWithFee(address,uint256,bool)":"2106208c"},"id":20}