{"abi":[{"type":"constructor","inputs":[{"name":"owner","type":"address","internalType":"address"},{"name":"intialNumber","type":"uint256","internalType":"uint256"}],"stateMutability":"nonpayable"},{"type":"function","name":"afterTaskSubmission","inputs":[{"name":"_taskInfo","type":"tuple","internalType":"struct IAttestationCenter.TaskInfo","components":[{"name":"proofOfTask","type":"string","internalType":"string"},{"name":"data","type":"bytes","internalType":"bytes"},{"name":"taskPerformer","type":"address","internalType":"address"},{"name":"taskDefinitionId","type":"uint16","internalType":"uint16"}]},{"name":"_isApproved","type":"bool","internalType":"bool"},{"name":"_tpSignature","type":"bytes","internalType":"bytes"},{"name":"_taSignature","type":"uint256[2]","internalType":"uint256[2]"},{"name":"_operatorIds","type":"uint256[]","internalType":"uint256[]"}],"outputs":[],"stateMutability":"nonpayable"},{"type":"function","name":"beforeTaskSubmission","inputs":[{"name":"_taskInfo","type":"tuple","internalType":"struct IAttestationCenter.TaskInfo","components":[{"name":"proofOfTask","type":"string","internalType":"string"},{"name":"data","type":"bytes","internalType":"bytes"},{"name":"taskPerformer","type":"address","internalType":"address"},{"name":"taskDefinitionId","type":"uint16","internalType":"uint16"}]},{"name":"_isApproved","type":"bool","internalType":"bool"},{"name":"_tpSignature","type":"bytes","internalType":"bytes"},{"name":"_taSignature","type":"uint256[2]","internalType":"uint256[2]"},{"name":"_operatorIds","type":"uint256[]","internalType":"uint256[]"}],"outputs":[],"stateMutability":"nonpayable"},{"type":"function","name":"getWhitelistMethods","inputs":[],"outputs":[{"name":"","type":"tuple[]","internalType":"struct IWhitelistAvs.WhitelistMethod[]","components":[{"name":"chainId","type":"string","internalType":"string"},{"name":"contractAddress","type":"address","internalType":"address"},{"name":"method","type":"string","internalType":"string"},{"name":"params","type":"string[]","internalType":"string[]"},{"name":"requirement","type":"string[]","internalType":"string[]"}]}],"stateMutability":"view"},{"type":"function","name":"increment","inputs":[],"outputs":[],"stateMutability":"nonpayable"},{"type":"function","name":"number","inputs":[],"outputs":[{"name":"","type":"uint256","internalType":"uint256"}],"stateMutability":"view"},{"type":"function","name":"owner","inputs":[],"outputs":[{"name":"","type":"address","internalType":"address"}],"stateMutability":"view"},{"type":"function","name":"renounceOwnership","inputs":[],"outputs":[],"stateMutability":"nonpayable"},{"type":"function","name":"setNumber","inputs":[{"name":"newNumber","type":"uint256","internalType":"uint256"}],"outputs":[],"stateMutability":"nonpayable"},{"type":"function","name":"setWhitelistMethod","inputs":[{"name":"method","type":"tuple","internalType":"struct IWhitelistAvs.WhitelistMethod","components":[{"name":"chainId","type":"string","internalType":"string"},{"name":"contractAddress","type":"address","internalType":"address"},{"name":"method","type":"string","internalType":"string"},{"name":"params","type":"string[]","internalType":"string[]"},{"name":"requirement","type":"string[]","internalType":"string[]"}]}],"outputs":[],"stateMutability":"nonpayable"},{"type":"function","name":"transferOwnership","inputs":[{"name":"newOwner","type":"address","internalType":"address"}],"outputs":[],"stateMutability":"nonpayable"},{"type":"function","name":"whitelist","inputs":[{"name":"","type":"address","internalType":"address"}],"outputs":[{"name":"","type":"bool","internalType":"bool"}],"stateMutability":"view"},{"type":"function","name":"whitelistMethods","inputs":[{"name":"","type":"uint256","internalType":"uint256"}],"outputs":[{"name":"chainId","type":"string","internalType":"string"},{"name":"contractAddress","type":"address","internalType":"address"},{"name":"method","type":"string","internalType":"string"}],"stateMutability":"view"},{"type":"event","name":"OwnershipTransferred","inputs":[{"name":"previousOwner","type":"address","indexed":true,"internalType":"address"},{"name":"newOwner","type":"address","indexed":true,"internalType":"address"}],"anonymous":false},{"type":"error","name":"OwnableInvalidOwner","inputs":[{"name":"owner","type":"address","internalType":"address"}]},{"type":"error","name":"OwnableUnauthorizedAccount","inputs":[{"name":"account","type":"address","internalType":"address"}]}],"bytecode":{"object":"0x608060405234801561001057600080fd5b506040516112d93803806112d983398101604081905261002f916100c1565b816001600160a01b03811661005e57604051631e4fbdf760e01b81526000600482015260240160405180910390fd5b61006781610071565b50600155506100fb565b600080546001600160a01b038381166001600160a01b0319831681178455604051919092169283917f8be0079c531659141344cd1fd0a4f28419497f9722a3daafe3b4186f6b6457e09190a35050565b600080604083850312156100d457600080fd5b82516001600160a01b03811681146100eb57600080fd5b6020939093015192949293505050565b6111cf8061010a6000396000f3fe608060405234801561001057600080fd5b50600436106100b45760003560e01c80638da5cb5b116100715780638da5cb5b146101425780639b19251a1461015d578063a0c54a4b14610190578063d09de08a146101a5578063dd1a5387146101ad578063f2fde38b146101c057600080fd5b80633fb5c1cb146100b957806341b2b1a9146100ce5780634c295477146100e1578063502f5bd01461010c578063715018a6146101235780638381f58a1461012b575b600080fd5b6100cc6100c73660046109fc565b6101d3565b005b6100cc6100dc366004610bb9565b61023c565b6100f46100ef3660046109fc565b610303565b60405161010393929190610ce9565b60405180910390f35b6100cc61011a366004610dcc565b50505050505050565b6100cc61045c565b61013460015481565b604051908152602001610103565b6000546040516001600160a01b039091168152602001610103565b61018061016b366004610e97565b60036020526000908152604090205460ff1681565b6040519015158152602001610103565b610198610470565b6040516101039190610f10565b6100cc6107bc565b6100cc6101bb366004610dcc565b610832565b6100cc6101ce366004610e97565b610884565b3360009081526003602052604090205460ff166102375760405162461bcd60e51b815260206004820181905260248201527f436f756e7465723a2075736572206973206e6f742077686974656c697374656460448201526064015b60405180910390fd5b600155565b6102446108c2565b60028054600181018255600091909152815182916005027f405787fa12a823e0f2b7631cc41b3ba8828b3321ca811111fa75cd3aa3bb5ace0190819061028a908261106b565b5060208201516001820180546001600160a01b0319166001600160a01b03909216919091179055604082015160028201906102c5908261106b565b50606082015180516102e191600384019160209091019061093f565b50608082015180516102fd91600484019160209091019061093f565b50505050565b6002818154811061031357600080fd5b906000526020600020906005020160009150905080600001805461033690610fe2565b80601f016020809104026020016040519081016040528092919081815260200182805461036290610fe2565b80156103af5780601f10610384576101008083540402835291602001916103af565b820191906000526020600020905b81548152906001019060200180831161039257829003601f168201915b505050600184015460028501805494956001600160a01b039092169491935091506103d990610fe2565b80601f016020809104026020016040519081016040528092919081815260200182805461040590610fe2565b80156104525780601f1061042757610100808354040283529160200191610452565b820191906000526020600020905b81548152906001019060200180831161043557829003601f168201915b5050505050905083565b6104646108c2565b61046e60006108ef565b565b60606002805480602002602001604051908101604052809291908181526020016000905b828210156107b357838290600052602060002090600502016040518060a00160405290816000820180546104c790610fe2565b80601f01602080910402602001604051908101604052809291908181526020018280546104f390610fe2565b80156105405780601f1061051557610100808354040283529160200191610540565b820191906000526020600020905b81548152906001019060200180831161052357829003601f168201915b505050918352505060018201546001600160a01b0316602082015260028201805460409092019161057090610fe2565b80601f016020809104026020016040519081016040528092919081815260200182805461059c90610fe2565b80156105e95780601f106105be576101008083540402835291602001916105e9565b820191906000526020600020905b8154815290600101906020018083116105cc57829003601f168201915b5050505050815260200160038201805480602002602001604051908101604052809291908181526020016000905b828210156106c357838290600052602060002001805461063690610fe2565b80601f016020809104026020016040519081016040528092919081815260200182805461066290610fe2565b80156106af5780601f10610684576101008083540402835291602001916106af565b820191906000526020600020905b81548152906001019060200180831161069257829003601f168201915b505050505081526020019060010190610617565b50505050815260200160048201805480602002602001604051908101604052809291908181526020016000905b8282101561079c57838290600052602060002001805461070f90610fe2565b80601f016020809104026020016040519081016040528092919081815260200182805461073b90610fe2565b80156107885780601f1061075d57610100808354040283529160200191610788565b820191906000526020600020905b81548152906001019060200180831161076b57829003601f168201915b5050505050815260200190600101906106f0565b505050508152505081526020019060010190610494565b50505050905090565b3360009081526003602052604090205460ff1661081b5760405162461bcd60e51b815260206004820181905260248201527f436f756e7465723a2075736572206973206e6f742077686974656c6973746564604482015260640161022e565b6001805490600061082b8361112b565b9190505550565b60006108416020890189611152565b81019061084e9190610e97565b9050861561087a576001600160a01b0381166000908152600360205260409020805460ff191660011790555b5050505050505050565b61088c6108c2565b6001600160a01b0381166108b657604051631e4fbdf760e01b81526000600482015260240161022e565b6108bf816108ef565b50565b6000546001600160a01b0316331461046e5760405163118cdaa760e01b815233600482015260240161022e565b600080546001600160a01b038381166001600160a01b0319831681178455604051919092169283917f8be0079c531659141344cd1fd0a4f28419497f9722a3daafe3b4186f6b6457e09190a35050565b828054828255906000526020600020908101928215610985579160200282015b828111156109855782518290610975908261106b565b509160200191906001019061095f565b50610991929150610995565b5090565b808211156109915760006109a982826109b2565b50600101610995565b5080546109be90610fe2565b6000825580601f106109ce575050565b601f0160209004906000526020600020908101906108bf91905b8082111561099157600081556001016109e8565b600060208284031215610a0e57600080fd5b5035919050565b634e487b7160e01b600052604160045260246000fd5b60405160a0810167ffffffffffffffff81118282101715610a4e57610a4e610a15565b60405290565b604051601f8201601f1916810167ffffffffffffffff81118282101715610a7d57610a7d610a15565b604052919050565b600082601f830112610a9657600080fd5b813567ffffffffffffffff811115610ab057610ab0610a15565b610ac3601f8201601f1916602001610a54565b818152846020838601011115610ad857600080fd5b816020850160208301376000918101602001919091529392505050565b6001600160a01b03811681146108bf57600080fd5b8035610b1581610af5565b919050565b600082601f830112610b2b57600080fd5b8135602067ffffffffffffffff80831115610b4857610b48610a15565b8260051b610b57838201610a54565b9384528581018301938381019088861115610b7157600080fd5b84880192505b85831015610bad57823584811115610b8f5760008081fd5b610b9d8a87838c0101610a85565b8352509184019190840190610b77565b98975050505050505050565b600060208284031215610bcb57600080fd5b813567ffffffffffffffff80821115610be357600080fd5b9083019060a08286031215610bf757600080fd5b610bff610a2b565b823582811115610c0e57600080fd5b610c1a87828601610a85565b825250610c2960208401610b0a565b6020820152604083013582811115610c4057600080fd5b610c4c87828601610a85565b604083015250606083013582811115610c6457600080fd5b610c7087828601610b1a565b606083015250608083013582811115610c8857600080fd5b610c9487828601610b1a565b60808301525095945050505050565b6000815180845260005b81811015610cc957602081850181015186830182015201610cad565b506000602082860101526020601f19601f83011685010191505092915050565b606081526000610cfc6060830186610ca3565b6001600160a01b03851660208401528281036040840152610d1d8185610ca3565b9695505050505050565b60008083601f840112610d3957600080fd5b50813567ffffffffffffffff811115610d5157600080fd5b602083019150836020828501011115610d6957600080fd5b9250929050565b8060408101831015610d8157600080fd5b92915050565b60008083601f840112610d9957600080fd5b50813567ffffffffffffffff811115610db157600080fd5b6020830191508360208260051b8501011115610d6957600080fd5b600080600080600080600060c0888a031215610de757600080fd5b873567ffffffffffffffff80821115610dff57600080fd5b908901906080828c031215610e1357600080fd5b9097506020890135908115158214610e2a57600080fd5b90965060408901359080821115610e4057600080fd5b610e4c8b838c01610d27565b9097509550859150610e618b60608c01610d70565b945060a08a0135915080821115610e7757600080fd5b50610e848a828b01610d87565b989b979a50959850939692959293505050565b600060208284031215610ea957600080fd5b8135610eb481610af5565b9392505050565b600081518084526020808501808196508360051b8101915082860160005b85811015610f03578284038952610ef1848351610ca3565b98850198935090840190600101610ed9565b5091979650505050505050565b60006020808301818452808551808352604092508286019150828160051b87010184880160005b83811015610fd457603f19898403018552815160a08151818652610f5d82870182610ca3565b838b01516001600160a01b0316878c0152898401518782038b8901529092509050610f888282610ca3565b91505060608083015186830382880152610fa28382610ebb565b9250505060808083015192508582038187015250610fc08183610ebb565b968901969450505090860190600101610f37565b509098975050505050505050565b600181811c90821680610ff657607f821691505b60208210810361101657634e487b7160e01b600052602260045260246000fd5b50919050565b601f82111561106657600081815260208120601f850160051c810160208610156110435750805b601f850160051c820191505b818110156110625782815560010161104f565b5050505b505050565b815167ffffffffffffffff81111561108557611085610a15565b611099816110938454610fe2565b8461101c565b602080601f8311600181146110ce57600084156110b65750858301515b600019600386901b1c1916600185901b178555611062565b600085815260208120601f198616915b828110156110fd578886015182559484019460019091019084016110de565b508582101561111b5787850151600019600388901b60f8161c191681555b5050505050600190811b01905550565b60006001820161114b57634e487b7160e01b600052601160045260246000fd5b5060010190565b6000808335601e1984360301811261116957600080fd5b83018035915067ffffffffffffffff82111561118457600080fd5b602001915036819003821315610d6957600080fdfea264697066735822122055fb7730d10a807e7b760890ca7d49dd9ec26798e0a00c8cd8cd98a72ec5752764736f6c63430008140033","linkReferences":{}},"methodIdentifiers":{"afterTaskSubmission((string,bytes,address,uint16),bool,bytes,uint256[2],uint256[])":"dd1a5387","beforeTaskSubmission((string,bytes,address,uint16),bool,bytes,uint256[2],uint256[])":"502f5bd0","getWhitelistMethods()":"a0c54a4b","increment()":"d09de08a","number()":"8381f58a","owner()":"8da5cb5b","renounceOwnership()":"715018a6","setNumber(uint256)":"3fb5c1cb","setWhitelistMethod((string,address,string,string[],string[]))":"41b2b1a9","transferOwnership(address)":"f2fde38b","whitelist(address)":"9b19251a","whitelistMethods(uint256)":"4c295477"},"id":26}